{
  "_format": "hh-sol-artifact-1",
  "contractName": "Counter",
  "sourceName": "contracts/counter.sol",
  "abi": [
    {
      "inputs": [],
      "stateMutability": "nonpayable",
      "type": "constructor"
    },
    {
      "inputs": [],
      "name": "InvalidShortString",
      "type": "error"
    },
    {
      "inputs": [],
      "name": "SignerNotMessageSender",
      "type": "error"
    },
    {
      "inputs": [],
      "name": "SignerNotOwner",
      "type": "error"
    },
    {
      "inputs": [
        {
          "internalType": "string",
          "name": "str",
          "type": "string"
        }
      ],
      "name": "StringTooLong",
      "type": "error"
    },
    {
      "anonymous": false,
      "inputs": [],
      "name": "EIP712DomainChanged",
      "type": "event"
    },
    {
      "inputs": [],
      "name": "eip712Domain",
      "outputs": [
        {
          "internalType": "bytes1",
          "name": "fields",
          "type": "bytes1"
        },
        {
          "internalType": "string",
          "name": "name",
          "type": "string"
        },
        {
          "internalType": "string",
          "name": "version",
          "type": "string"
        },
        {
          "internalType": "uint256",
          "name": "chainId",
          "type": "uint256"
        },
        {
          "internalType": "address",
          "name": "verifyingContract",
          "type": "address"
        },
        {
          "internalType": "bytes32",
          "name": "salt",
          "type": "bytes32"
        },
        {
          "internalType": "uint256[]",
          "name": "extensions",
          "type": "uint256[]"
        }
      ],
      "stateMutability": "view",
      "type": "function"
    },
    {
      "inputs": [],
      "name": "gameNumber",
      "outputs": [
        {
          "internalType": "euint32",
          "name": "",
          "type": "uint256"
        }
      ],
      "stateMutability": "view",
      "type": "function"
    },
    {
      "inputs": [
        {
          "components": [
            {
              "internalType": "bytes",
              "name": "data",
              "type": "bytes"
            }
          ],
          "internalType": "struct inEuint32",
          "name": "encryptedValue",
          "type": "tuple"
        }
      ],
      "name": "gameValue",
      "outputs": [],
      "stateMutability": "nonpayable",
      "type": "function"
    },
    {
      "inputs": [],
      "name": "owner",
      "outputs": [
        {
          "internalType": "address",
          "name": "",
          "type": "address"
        }
      ],
      "stateMutability": "view",
      "type": "function"
    },
    {
      "inputs": [
        {
          "components": [
            {
              "internalType": "bytes",
              "name": "data",
              "type": "bytes"
            }
          ],
          "internalType": "struct inEuint32",
          "name": "encryptedBetAmount",
          "type": "tuple"
        },
        {
          "components": [
            {
              "internalType": "bytes",
              "name": "data",
              "type": "bytes"
            }
          ],
          "internalType": "struct inEuint32",
          "name": "encryptedBetNumber",
          "type": "tuple"
        },
        {
          "internalType": "address",
          "name": "player",
          "type": "address"
        }
      ],
      "name": "playerBet",
      "outputs": [],
      "stateMutability": "nonpayable",
      "type": "function"
    },
    {
      "inputs": [
        {
          "internalType": "address",
          "name": "",
          "type": "address"
        }
      ],
      "name": "playerBets",
      "outputs": [
        {
          "internalType": "euint32",
          "name": "playerBetAmount",
          "type": "uint256"
        },
        {
          "internalType": "euint32",
          "name": "playerBetNumber",
          "type": "uint256"
        }
      ],
      "stateMutability": "view",
      "type": "function"
    }
  ],
  "bytecode": "0x61016060405234801561001157600080fd5b506040518060400160405280601181526020017f4668656e6978205065726d697373696f6e0000000000000000000000000000008152506040518060400160405280600381526020017f312e30000000000000000000000000000000000000000000000000000000000081525061009260008361016e60201b90919060201c565b61012081815250506100ae60018261016e60201b90919060201c565b6101408181525050818051906020012060e08181525050808051906020012061010081815250504660a081815250506100eb6101be60201b60201c565b608081815250503073ffffffffffffffffffffffffffffffffffffffff1660c08173ffffffffffffffffffffffffffffffffffffffff1681525050505033600360006101000a81548173ffffffffffffffffffffffffffffffffffffffff021916908373ffffffffffffffffffffffffffffffffffffffff1602179055506107a7565b6000602083511015610190576101898361021960201b60201c565b90506101b8565b826101a08361028160201b60201c565b60000190816101af91906104db565b5060ff60001b90505b92915050565b60007f8b73c3c69bb8fe3d512ecc4cf759cc79239f7b179b0ffacaa9a75d522b39400f60e0516101005146306040516020016101fe959493929190610616565b60405160208183030381529060405280519060200120905090565b600080829050601f8151111561026657826040517f305a27a900000000000000000000000000000000000000000000000000000000815260040161025d91906106ee565b60405180910390fd5b80518161027290610740565b60001c1760001b915050919050565b6000819050919050565b600081519050919050565b7f4e487b7100000000000000000000000000000000000000000000000000000000600052604160045260246000fd5b7f4e487b7100000000000000000000000000000000000000000000000000000000600052602260045260246000fd5b6000600282049050600182168061030c57607f821691505b60208210810361031f5761031e6102c5565b5b50919050565b60008190508160005260206000209050919050565b60006020601f8301049050919050565b600082821b905092915050565b6000600883026103877fffffffffffffffffffffffffffffffffffffffffffffffffffffffffffffffff8261034a565b610391868361034a565b95508019841693508086168417925050509392505050565b6000819050919050565b6000819050919050565b60006103d86103d36103ce846103a9565b6103b3565b6103a9565b9050919050565b6000819050919050565b6103f2836103bd565b6104066103fe826103df565b848454610357565b825550505050565b600090565b61041b61040e565b6104268184846103e9565b505050565b5b8181101561044a5761043f600082610413565b60018101905061042c565b5050565b601f82111561048f5761046081610325565b6104698461033a565b81016020851015610478578190505b61048c6104848561033a565b83018261042b565b50505b505050565b600082821c905092915050565b60006104b260001984600802610494565b1980831691505092915050565b60006104cb83836104a1565b9150826002028217905092915050565b6104e48261028b565b67ffffffffffffffff8111156104fd576104fc610296565b5b61050782546102f4565b61051282828561044e565b600060209050601f8311600181146105455760008415610533578287015190505b61053d85826104bf565b8655506105a5565b601f19841661055386610325565b60005b8281101561057b57848901518255600182019150602085019450602081019050610556565b868310156105985784890151610594601f8916826104a1565b8355505b6001600288020188555050505b505050505050565b6000819050919050565b6105c0816105ad565b82525050565b6105cf816103a9565b82525050565b600073ffffffffffffffffffffffffffffffffffffffff82169050919050565b6000610600826105d5565b9050919050565b610610816105f5565b82525050565b600060a08201905061062b60008301886105b7565b61063860208301876105b7565b61064560408301866105b7565b61065260608301856105c6565b61065f6080830184610607565b9695505050505050565b600082825260208201905092915050565b60005b8381101561069857808201518184015260208101905061067d565b60008484015250505050565b6000601f19601f8301169050919050565b60006106c08261028b565b6106ca8185610669565b93506106da81856020860161067a565b6106e3816106a4565b840191505092915050565b6000602082019050818103600083015261070881846106b5565b905092915050565b600081519050919050565b6000819050602082019050919050565b600061073782516105ad565b80915050919050565b600061074b82610710565b826107558461071b565b90506107608161072b565b925060208210156107a05761079b7fffffffffffffffffffffffffffffffffffffffffffffffffffffffffffffffff8360200360080261034a565b831692505b5050919050565b60805160a05160c05160e051610100516101205161014051610dbe6107f260003960006103430152600061030801526000505060005050600050506000505060005050610dbe6000f3fe608060405234801561001057600080fd5b50600436106100625760003560e01c806302510eb51461006757806384b0196e146100835780638da5cb5b146100a7578063c7aa327b146100c5578063d2909874146100f6578063d8d40cee14610112575b600080fd5b610081600480360381019061007c91906105dd565b610130565b005b61008b610151565b60405161009e9796959493929190610822565b60405180910390f35b6100af6101fb565b6040516100bc91906108a6565b60405180910390f35b6100df60048036038101906100da91906108ed565b610221565b6040516100ed929190610955565b60405180910390f35b610110600480360381019061010b919061097e565b610245565b005b61011a6102e3565b6040516101279190610a09565b60405180910390f35b60006101448261013f90610bbb565b6102e9565b9050806004819055505050565b6000606080600080600060606101656102ff565b61016d61033a565b46306000801b600067ffffffffffffffff81111561018e5761018d610a29565b5b6040519080825280602002602001820160405280156101bc5781602001602082028036833780820191505090505b507f0f00000000000000000000000000000000000000000000000000000000000000959493929190965096509650965096509650965090919293949596565b600360009054906101000a900473ffffffffffffffffffffffffffffffffffffffff1681565b60056020528060005260406000206000915090508060000154908060010154905082565b60006102598461025490610bbb565b6102e9565b9050600061026f8461026a90610bbb565b6102e9565b9050604051806040016040528083815260200182815250600560008573ffffffffffffffffffffffffffffffffffffffff1673ffffffffffffffffffffffffffffffffffffffff16815260200190815260200160002060008201518160000155602082015181600101559050505050505050565b60045481565b60006102f88260000151610375565b9050919050565b606061033560007f000000000000000000000000000000000000000000000000000000000000000061038990919063ffffffff16565b905090565b606061037060017f000000000000000000000000000000000000000000000000000000000000000061038990919063ffffffff16565b905090565b6000610382826002610439565b9050919050565b606060ff60001b83146103a65761039f836104d3565b9050610433565b8180546103b290610bfd565b80601f01602080910402602001604051908101604052809291908181526020018280546103de90610bfd565b801561042b5780601f106104005761010080835404028352916020019161042b565b820191906000526020600020905b81548152906001019060200180831161040e57829003601f168201915b505050505090505b92915050565b60006060608073ffffffffffffffffffffffffffffffffffffffff16635fa55ca784866040518363ffffffff1660e01b8152600401610479929190610c9f565b600060405180830381865afa158015610496573d6000803e3d6000fd5b505050506040513d6000823e3d601f19601f820116820180604052508101906104bf9190610d3f565b90506104ca81610547565b91505092915050565b606060006104e083610555565b90506000602067ffffffffffffffff8111156104ff576104fe610a29565b5b6040519080825280601f01601f1916602001820160405280156105315781602001600182028036833780820191505090505b5090508181528360208201528092505050919050565b600060208201519050919050565b60008060ff8360001c169050601f81111561059c576040517fb3512b0c00000000000000000000000000000000000000000000000000000000815260040160405180910390fd5b80915050919050565b6000604051905090565b600080fd5b600080fd5b600080fd5b6000602082840312156105d4576105d36105b9565b5b81905092915050565b6000602082840312156105f3576105f26105af565b5b600082013567ffffffffffffffff811115610611576106106105b4565b5b61061d848285016105be565b91505092915050565b60007fff0000000000000000000000000000000000000000000000000000000000000082169050919050565b61065b81610626565b82525050565b600081519050919050565b600082825260208201905092915050565b60005b8381101561069b578082015181840152602081019050610680565b60008484015250505050565b6000601f19601f8301169050919050565b60006106c382610661565b6106cd818561066c565b93506106dd81856020860161067d565b6106e6816106a7565b840191505092915050565b6000819050919050565b610704816106f1565b82525050565b600073ffffffffffffffffffffffffffffffffffffffff82169050919050565b60006107358261070a565b9050919050565b6107458161072a565b82525050565b6000819050919050565b61075e8161074b565b82525050565b600081519050919050565b600082825260208201905092915050565b6000819050602082019050919050565b610799816106f1565b82525050565b60006107ab8383610790565b60208301905092915050565b6000602082019050919050565b60006107cf82610764565b6107d9818561076f565b93506107e483610780565b8060005b838110156108155781516107fc888261079f565b9750610807836107b7565b9250506001810190506107e8565b5085935050505092915050565b600060e082019050610837600083018a610652565b818103602083015261084981896106b8565b9050818103604083015261085d81886106b8565b905061086c60608301876106fb565b610879608083018661073c565b61088660a0830185610755565b81810360c083015261089881846107c4565b905098975050505050505050565b60006020820190506108bb600083018461073c565b92915050565b6108ca8161072a565b81146108d557600080fd5b50565b6000813590506108e7816108c1565b92915050565b600060208284031215610903576109026105af565b5b6000610911848285016108d8565b91505092915050565b6000819050919050565b600061093f61093a610935846106f1565b61091a565b6106f1565b9050919050565b61094f81610924565b82525050565b600060408201905061096a6000830185610946565b6109776020830184610946565b9392505050565b600080600060608486031215610997576109966105af565b5b600084013567ffffffffffffffff8111156109b5576109b46105b4565b5b6109c1868287016105be565b935050602084013567ffffffffffffffff8111156109e2576109e16105b4565b5b6109ee868287016105be565b92505060406109ff868287016108d8565b9150509250925092565b6000602082019050610a1e6000830184610946565b92915050565b600080fd5b7f4e487b7100000000000000000000000000000000000000000000000000000000600052604160045260246000fd5b610a61826106a7565b810181811067ffffffffffffffff82111715610a8057610a7f610a29565b5b80604052505050565b6000610a936105a5565b9050610a9f8282610a58565b919050565b600080fd5b600080fd5b600080fd5b600067ffffffffffffffff821115610ace57610acd610a29565b5b610ad7826106a7565b9050602081019050919050565b82818337600083830152505050565b6000610b06610b0184610ab3565b610a89565b905082815260208101848484011115610b2257610b21610aae565b5b610b2d848285610ae4565b509392505050565b600082601f830112610b4a57610b49610aa9565b5b8135610b5a848260208601610af3565b91505092915050565b600060208284031215610b7957610b78610a24565b5b610b836020610a89565b9050600082013567ffffffffffffffff811115610ba357610ba2610aa4565b5b610baf84828501610b35565b60008301525092915050565b6000610bc73683610b63565b9050919050565b7f4e487b7100000000000000000000000000000000000000000000000000000000600052602260045260246000fd5b60006002820490506001821680610c1557607f821691505b602082108103610c2857610c27610bce565b5b50919050565b600060ff82169050919050565b610c4481610c2e565b82525050565b600081519050919050565b600082825260208201905092915050565b6000610c7182610c4a565b610c7b8185610c55565b9350610c8b81856020860161067d565b610c94816106a7565b840191505092915050565b6000604082019050610cb46000830185610c3b565b8181036020830152610cc68184610c66565b90509392505050565b6000610ce2610cdd84610ab3565b610a89565b905082815260208101848484011115610cfe57610cfd610aae565b5b610d0984828561067d565b509392505050565b600082601f830112610d2657610d25610aa9565b5b8151610d36848260208601610ccf565b91505092915050565b600060208284031215610d5557610d546105af565b5b600082015167ffffffffffffffff811115610d7357610d726105b4565b5b610d7f84828501610d11565b9150509291505056fea26469706673582212204757e52e54795b14f73c87d98dab3b6faf8073916fe7e1d8430b6411fcabe90264736f6c63430008190033",
  "linkReferences": {},
  "deployedLinkReferences": {}
}